{
  "address": "0x8f10c31304874C70945e775979F5B4cbCe02716d",
  "abi": [
    {
      "constant": true,
      "inputs": [
        {
          "name": "_interfaceId",
          "type": "bytes4"
        }
      ],
      "name": "supportsInterface",
      "outputs": [
        {
          "name": "",
          "type": "bool"
        }
      ],
      "payable": false,
      "stateMutability": "pure",
      "type": "function"
    },
    {
      "constant": true,
      "inputs": [
        {
          "name": "_actionId",
          "type": "uint256"
        },
        {
          "name": "_challenger",
          "type": "address"
        }
      ],
      "name": "canPerformChallenge",
      "outputs": [
        {
          "name": "",
          "type": "bool"
        }
      ],
      "payable": false,
      "stateMutability": "view",
      "type": "function"
    },
    {
      "constant": false,
      "inputs": [
        {
          "name": "_disputable",
          "type": "address"
        },
        {
          "name": "_collateralToken",
          "type": "address"
        },
        {
          "name": "_challengeDuration",
          "type": "uint64"
        },
        {
          "name": "_actionAmount",
          "type": "uint256"
        },
        {
          "name": "_challengeAmount",
          "type": "uint256"
        }
      ],
      "name": "changeCollateralRequirement",
      "outputs": [],
      "payable": false,
      "stateMutability": "nonpayable",
      "type": "function"
    },
    {
      "constant": true,
      "inputs": [],
      "name": "hasInitialized",
      "outputs": [
        {
          "name": "",
          "type": "bool"
        }
      ],
      "payable": false,
      "stateMutability": "view",
      "type": "function"
    },
    {
      "constant": true,
      "inputs": [
        {
          "name": "_signer",
          "type": "address"
        }
      ],
      "name": "getSigner",
      "outputs": [
        {
          "name": "lastSettingIdSigned",
          "type": "uint256"
        },
        {
          "name": "mustSign",
          "type": "bool"
        }
      ],
      "payable": false,
      "stateMutability": "view",
      "type": "function"
    },
    {
      "constant": true,
      "inputs": [
        {
          "name": "_challengeId",
          "type": "uint256"
        }
      ],
      "name": "getChallenge",
      "outputs": [
        {
          "name": "actionId",
          "type": "uint256"
        },
        {
          "name": "challenger",
          "type": "address"
        },
        {
          "name": "endDate",
          "type": "uint64"
        },
        {
          "name": "context",
          "type": "bytes"
        },
        {
          "name": "settlementOffer",
          "type": "uint256"
        },
        {
          "name": "state",
          "type": "uint8"
        },
        {
          "name": "submitterFinishedEvidence",
          "type": "bool"
        },
        {
          "name": "challengerFinishedEvidence",
          "type": "bool"
        },
        {
          "name": "disputeId",
          "type": "uint256"
        },
        {
          "name": "ruling",
          "type": "uint256"
        }
      ],
      "payable": false,
      "stateMutability": "view",
      "type": "function"
    },
    {
      "constant": true,
      "inputs": [
        {
          "name": "_disputable",
          "type": "address"
        },
        {
          "name": "_collateralRequirementId",
          "type": "uint256"
        }
      ],
      "name": "getCollateralRequirement",
      "outputs": [
        {
          "name": "collateralToken",
          "type": "address"
        },
        {
          "name": "challengeDuration",
          "type": "uint64"
        },
        {
          "name": "actionAmount",
          "type": "uint256"
        },
        {
          "name": "challengeAmount",
          "type": "uint256"
        }
      ],
      "payable": false,
      "stateMutability": "view",
      "type": "function"
    },
    {
      "constant": true,
      "inputs": [],
      "name": "stakingFactory",
      "outputs": [
        {
          "name": "",
          "type": "address"
        }
      ],
      "payable": false,
      "stateMutability": "view",
      "type": "function"
    },
    {
      "constant": true,
      "inputs": [
        {
          "name": "_script",
          "type": "bytes"
        }
      ],
      "name": "getEVMScriptExecutor",
      "outputs": [
        {
          "name": "",
          "type": "address"
        }
      ],
      "payable": false,
      "stateMutability": "view",
      "type": "function"
    },
    {
      "constant": true,
      "inputs": [
        {
          "name": "",
          "type": "address"
        },
        {
          "name": "",
          "type": "address"
        },
        {
          "name": "",
          "type": "bytes32"
        },
        {
          "name": "_how",
          "type": "uint256[]"
        }
      ],
      "name": "canPerform",
      "outputs": [
        {
          "name": "",
          "type": "bool"
        }
      ],
      "payable": false,
      "stateMutability": "view",
      "type": "function"
    },
    {
      "constant": true,
      "inputs": [],
      "name": "MANAGE_DISPUTABLE_ROLE",
      "outputs": [
        {
          "name": "",
          "type": "bytes32"
        }
      ],
      "payable": false,
      "stateMutability": "view",
      "type": "function"
    },
    {
      "constant": false,
      "inputs": [
        {
          "name": "_arbitrator",
          "type": "address"
        },
        {
          "name": "_setAppFeesCashier",
          "type": "bool"
        },
        {
          "name": "_title",
          "type": "string"
        },
        {
          "name": "_content",
          "type": "bytes"
        },
        {
          "name": "_stakingFactory",
          "type": "address"
        }
      ],
      "name": "initialize",
      "outputs": [],
      "payable": false,
      "stateMutability": "nonpayable",
      "type": "function"
    },
    {
      "constant": false,
      "inputs": [
        {
          "name": "_actionId",
          "type": "uint256"
        },
        {
          "name": "_submitterFinishedEvidence",
          "type": "bool"
        }
      ],
      "name": "disputeAction",
      "outputs": [],
      "payable": false,
      "stateMutability": "nonpayable",
      "type": "function"
    },
    {
      "constant": false,
      "inputs": [
        {
          "name": "_settingId",
          "type": "uint256"
        }
      ],
      "name": "sign",
      "outputs": [],
      "payable": false,
      "stateMutability": "nonpayable",
      "type": "function"
    },
    {
      "constant": true,
      "inputs": [
        {
          "name": "",
          "type": "address"
        },
        {
          "name": "",
          "type": "uint256"
        }
      ],
      "name": "canUnlock",
      "outputs": [
        {
          "name": "",
          "type": "bool"
        }
      ],
      "payable": false,
      "stateMutability": "view",
      "type": "function"
    },
    {
      "constant": true,
      "inputs": [],
      "name": "getRecoveryVault",
      "outputs": [
        {
          "name": "",
          "type": "address"
        }
      ],
      "payable": false,
      "stateMutability": "view",
      "type": "function"
    },
    {
      "constant": false,
      "inputs": [
        {
          "name": "_actionId",
          "type": "uint256"
        },
        {
          "name": "_settlementOffer",
          "type": "uint256"
        },
        {
          "name": "_finishedEvidence",
          "type": "bool"
        },
        {
          "name": "_context",
          "type": "bytes"
        }
      ],
      "name": "challengeAction",
      "outputs": [],
      "payable": false,
      "stateMutability": "nonpayable",
      "type": "function"
    },
    {
      "constant": false,
      "inputs": [
        {
          "name": "_disputableAddress",
          "type": "address"
        },
        {
          "name": "_collateralToken",
          "type": "address"
        },
        {
          "name": "_challengeDuration",
          "type": "uint64"
        },
        {
          "name": "_actionAmount",
          "type": "uint256"
        },
        {
          "name": "_challengeAmount",
          "type": "uint256"
        }
      ],
      "name": "activate",
      "outputs": [],
      "payable": false,
      "stateMutability": "nonpayable",
      "type": "function"
    },
    {
      "constant": false,
      "inputs": [
        {
          "name": "_actionId",
          "type": "uint256"
        }
      ],
      "name": "closeAction",
      "outputs": [],
      "payable": false,
      "stateMutability": "nonpayable",
      "type": "function"
    },
    {
      "constant": true,
      "inputs": [
        {
          "name": "_actionId",
          "type": "uint256"
        }
      ],
      "name": "canRuleDispute",
      "outputs": [
        {
          "name": "",
          "type": "bool"
        }
      ],
      "payable": false,
      "stateMutability": "view",
      "type": "function"
    },
    {
      "constant": false,
      "inputs": [
        {
          "name": "_actionId",
          "type": "uint256"
        }
      ],
      "name": "settleAction",
      "outputs": [],
      "payable": false,
      "stateMutability": "nonpayable",
      "type": "function"
    },
    {
      "constant": false,
      "inputs": [
        {
          "name": "_disputableAddress",
          "type": "address"
        }
      ],
      "name": "deactivate",
      "outputs": [],
      "payable": false,
      "stateMutability": "nonpayable",
      "type": "function"
    },
    {
      "constant": true,
      "inputs": [
        {
          "name": "_settingId",
          "type": "uint256"
        }
      ],
      "name": "getSetting",
      "outputs": [
        {
          "name": "arbitrator",
          "type": "address"
        },
        {
          "name": "aragonAppFeesCashier",
          "type": "address"
        },
        {
          "name": "title",
          "type": "string"
        },
        {
          "name": "content",
          "type": "bytes"
        }
      ],
      "payable": false,
      "stateMutability": "view",
      "type": "function"
    },
    {
      "constant": false,
      "inputs": [
        {
          "name": "_disputeId",
          "type": "uint256"
        }
      ],
      "name": "resolve",
      "outputs": [],
      "payable": false,
      "stateMutability": "nonpayable",
      "type": "function"
    },
    {
      "constant": false,
      "inputs": [
        {
          "name": "_arbitrator",
          "type": "address"
        },
        {
          "name": "_setAppFeesCashier",
          "type": "bool"
        },
        {
          "name": "_title",
          "type": "string"
        },
        {
          "name": "_content",
          "type": "bytes"
        }
      ],
      "name": "changeSetting",
      "outputs": [],
      "payable": false,
      "stateMutability": "nonpayable",
      "type": "function"
    },
    {
      "constant": true,
      "inputs": [
        {
          "name": "_actionId",
          "type": "uint256"
        }
      ],
      "name": "canChallenge",
      "outputs": [
        {
          "name": "",
          "type": "bool"
        }
      ],
      "payable": false,
      "stateMutability": "view",
      "type": "function"
    },
    {
      "constant": true,
      "inputs": [
        {
          "name": "_actionId",
          "type": "uint256"
        }
      ],
      "name": "canClose",
      "outputs": [
        {
          "name": "",
          "type": "bool"
        }
      ],
      "payable": false,
      "stateMutability": "view",
      "type": "function"
    },
    {
      "constant": true,
      "inputs": [
        {
          "name": "",
          "type": "address"
        }
      ],
      "name": "allowRecoverability",
      "outputs": [
        {
          "name": "",
          "type": "bool"
        }
      ],
      "payable": false,
      "stateMutability": "view",
      "type": "function"
    },
    {
      "constant": false,
      "inputs": [
        {
          "name": "_disputeId",
          "type": "uint256"
        }
      ],
      "name": "closeEvidencePeriod",
      "outputs": [],
      "payable": false,
      "stateMutability": "nonpayable",
      "type": "function"
    },
    {
      "constant": true,
      "inputs": [],
      "name": "appId",
      "outputs": [
        {
          "name": "",
          "type": "bytes32"
        }
      ],
      "payable": false,
      "stateMutability": "view",
      "type": "function"
    },
    {
      "constant": true,
      "inputs": [],
      "name": "getInitializationBlock",
      "outputs": [
        {
          "name": "",
          "type": "uint256"
        }
      ],
      "payable": false,
      "stateMutability": "view",
      "type": "function"
    },
    {
      "constant": true,
      "inputs": [],
      "name": "CHALLENGE_ROLE",
      "outputs": [
        {
          "name": "",
          "type": "bytes32"
        }
      ],
      "payable": false,
      "stateMutability": "view",
      "type": "function"
    },
    {
      "constant": false,
      "inputs": [
        {
          "name": "_token",
          "type": "address"
        }
      ],
      "name": "transferToVault",
      "outputs": [],
      "payable": false,
      "stateMutability": "nonpayable",
      "type": "function"
    },
    {
      "constant": true,
      "inputs": [
        {
          "name": "_sender",
          "type": "address"
        },
        {
          "name": "_role",
          "type": "bytes32"
        },
        {
          "name": "_params",
          "type": "uint256[]"
        }
      ],
      "name": "canPerform",
      "outputs": [
        {
          "name": "",
          "type": "bool"
        }
      ],
      "payable": false,
      "stateMutability": "view",
      "type": "function"
    },
    {
      "constant": true,
      "inputs": [],
      "name": "getEVMScriptRegistry",
      "outputs": [
        {
          "name": "",
          "type": "address"
        }
      ],
      "payable": false,
      "stateMutability": "view",
      "type": "function"
    },
    {
      "constant": true,
      "inputs": [
        {
          "name": "_actionId",
          "type": "uint256"
        }
      ],
      "name": "canDispute",
      "outputs": [
        {
          "name": "",
          "type": "bool"
        }
      ],
      "payable": false,
      "stateMutability": "view",
      "type": "function"
    },
    {
      "constant": true,
      "inputs": [],
      "name": "getCurrentSettingId",
      "outputs": [
        {
          "name": "",
          "type": "uint256"
        }
      ],
      "payable": false,
      "stateMutability": "view",
      "type": "function"
    },
    {
      "constant": true,
      "inputs": [
        {
          "name": "_actionId",
          "type": "uint256"
        }
      ],
      "name": "getAction",
      "outputs": [
        {
          "name": "disputable",
          "type": "address"
        },
        {
          "name": "disputableActionId",
          "type": "uint256"
        },
        {
          "name": "collateralRequirementId",
          "type": "uint256"
        },
        {
          "name": "settingId",
          "type": "uint256"
        },
        {
          "name": "submitter",
          "type": "address"
        },
        {
          "name": "closed",
          "type": "bool"
        },
        {
          "name": "context",
          "type": "bytes"
        },
        {
          "name": "lastChallengeId",
          "type": "uint256"
        },
        {
          "name": "lastChallengeActive",
          "type": "bool"
        }
      ],
      "payable": false,
      "stateMutability": "view",
      "type": "function"
    },
    {
      "constant": true,
      "inputs": [
        {
          "name": "_disputable",
          "type": "address"
        }
      ],
      "name": "getDisputableInfo",
      "outputs": [
        {
          "name": "activated",
          "type": "bool"
        },
        {
          "name": "currentCollateralRequirementId",
          "type": "uint256"
        }
      ],
      "payable": false,
      "stateMutability": "view",
      "type": "function"
    },
    {
      "constant": false,
      "inputs": [
        {
          "name": "_disputeId",
          "type": "uint256"
        },
        {
          "name": "_evidence",
          "type": "bytes"
        },
        {
          "name": "_finished",
          "type": "bool"
        }
      ],
      "name": "submitEvidence",
      "outputs": [],
      "payable": false,
      "stateMutability": "nonpayable",
      "type": "function"
    },
    {
      "constant": false,
      "inputs": [],
      "name": "syncAppFeesCashier",
      "outputs": [],
      "payable": false,
      "stateMutability": "nonpayable",
      "type": "function"
    },
    {
      "constant": true,
      "inputs": [],
      "name": "CHANGE_AGREEMENT_ROLE",
      "outputs": [
        {
          "name": "",
          "type": "bytes32"
        }
      ],
      "payable": false,
      "stateMutability": "view",
      "type": "function"
    },
    {
      "constant": true,
      "inputs": [
        {
          "name": "_actionId",
          "type": "uint256"
        }
      ],
      "name": "canClaimSettlement",
      "outputs": [
        {
          "name": "",
          "type": "bool"
        }
      ],
      "payable": false,
      "stateMutability": "view",
      "type": "function"
    },
    {
      "constant": true,
      "inputs": [],
      "name": "kernel",
      "outputs": [
        {
          "name": "",
          "type": "address"
        }
      ],
      "payable": false,
      "stateMutability": "view",
      "type": "function"
    },
    {
      "constant": true,
      "inputs": [],
      "name": "isPetrified",
      "outputs": [
        {
          "name": "",
          "type": "bool"
        }
      ],
      "payable": false,
      "stateMutability": "view",
      "type": "function"
    },
    {
      "constant": true,
      "inputs": [
        {
          "name": "_actionId",
          "type": "uint256"
        }
      ],
      "name": "canSettle",
      "outputs": [
        {
          "name": "",
          "type": "bool"
        }
      ],
      "payable": false,
      "stateMutability": "view",
      "type": "function"
    },
    {
      "constant": false,
      "inputs": [
        {
          "name": "_disputableActionId",
          "type": "uint256"
        },
        {
          "name": "_context",
          "type": "bytes"
        },
        {
          "name": "_submitter",
          "type": "address"
        }
      ],
      "name": "newAction",
      "outputs": [
        {
          "name": "",
          "type": "uint256"
        }
      ],
      "payable": false,
      "stateMutability": "nonpayable",
      "type": "function"
    },
    {
      "constant": true,
      "inputs": [
        {
          "name": "_challengeId",
          "type": "uint256"
        }
      ],
      "name": "getChallengeArbitratorFees",
      "outputs": [
        {
          "name": "submitterArbitratorFeesToken",
          "type": "address"
        },
        {
          "name": "submitterArbitratorFeesAmount",
          "type": "uint256"
        },
        {
          "name": "challengerArbitratorFeesToken",
          "type": "address"
        },
        {
          "name": "challengerArbitratorFeesAmount",
          "type": "uint256"
        }
      ],
      "payable": false,
      "stateMutability": "view",
      "type": "function"
    },
    {
      "anonymous": false,
      "inputs": [
        {
          "indexed": true,
          "name": "signer",
          "type": "address"
        },
        {
          "indexed": false,
          "name": "settingId",
          "type": "uint256"
        }
      ],
      "name": "Signed",
      "type": "event"
    },
    {
      "anonymous": false,
      "inputs": [
        {
          "indexed": false,
          "name": "settingId",
          "type": "uint256"
        }
      ],
      "name": "SettingChanged",
      "type": "event"
    },
    {
      "anonymous": false,
      "inputs": [
        {
          "indexed": false,
          "name": "newAppFeesCashier",
          "type": "address"
        }
      ],
      "name": "AppFeesCashierSynced",
      "type": "event"
    },
    {
      "anonymous": false,
      "inputs": [
        {
          "indexed": true,
          "name": "disputable",
          "type": "address"
        }
      ],
      "name": "DisputableAppActivated",
      "type": "event"
    },
    {
      "anonymous": false,
      "inputs": [
        {
          "indexed": true,
          "name": "disputable",
          "type": "address"
        }
      ],
      "name": "DisputableAppDeactivated",
      "type": "event"
    },
    {
      "anonymous": false,
      "inputs": [
        {
          "indexed": true,
          "name": "disputable",
          "type": "address"
        },
        {
          "indexed": false,
          "name": "collateralRequirementId",
          "type": "uint256"
        }
      ],
      "name": "CollateralRequirementChanged",
      "type": "event"
    },
    {
      "anonymous": false,
      "inputs": [
        {
          "indexed": true,
          "name": "executor",
          "type": "address"
        },
        {
          "indexed": false,
          "name": "script",
          "type": "bytes"
        },
        {
          "indexed": false,
          "name": "input",
          "type": "bytes"
        },
        {
          "indexed": false,
          "name": "returnData",
          "type": "bytes"
        }
      ],
      "name": "ScriptResult",
      "type": "event"
    },
    {
      "anonymous": false,
      "inputs": [
        {
          "indexed": true,
          "name": "vault",
          "type": "address"
        },
        {
          "indexed": true,
          "name": "token",
          "type": "address"
        },
        {
          "indexed": false,
          "name": "amount",
          "type": "uint256"
        }
      ],
      "name": "RecoverToVault",
      "type": "event"
    },
    {
      "anonymous": false,
      "inputs": [
        {
          "indexed": true,
          "name": "actionId",
          "type": "uint256"
        },
        {
          "indexed": true,
          "name": "disputable",
          "type": "address"
        }
      ],
      "name": "ActionSubmitted",
      "type": "event"
    },
    {
      "anonymous": false,
      "inputs": [
        {
          "indexed": true,
          "name": "actionId",
          "type": "uint256"
        }
      ],
      "name": "ActionClosed",
      "type": "event"
    },
    {
      "anonymous": false,
      "inputs": [
        {
          "indexed": true,
          "name": "actionId",
          "type": "uint256"
        },
        {
          "indexed": true,
          "name": "challengeId",
          "type": "uint256"
        }
      ],
      "name": "ActionChallenged",
      "type": "event"
    },
    {
      "anonymous": false,
      "inputs": [
        {
          "indexed": true,
          "name": "actionId",
          "type": "uint256"
        },
        {
          "indexed": true,
          "name": "challengeId",
          "type": "uint256"
        }
      ],
      "name": "ActionSettled",
      "type": "event"
    },
    {
      "anonymous": false,
      "inputs": [
        {
          "indexed": true,
          "name": "actionId",
          "type": "uint256"
        },
        {
          "indexed": true,
          "name": "challengeId",
          "type": "uint256"
        }
      ],
      "name": "ActionDisputed",
      "type": "event"
    },
    {
      "anonymous": false,
      "inputs": [
        {
          "indexed": true,
          "name": "actionId",
          "type": "uint256"
        },
        {
          "indexed": true,
          "name": "challengeId",
          "type": "uint256"
        }
      ],
      "name": "ActionAccepted",
      "type": "event"
    },
    {
      "anonymous": false,
      "inputs": [
        {
          "indexed": true,
          "name": "actionId",
          "type": "uint256"
        },
        {
          "indexed": true,
          "name": "challengeId",
          "type": "uint256"
        }
      ],
      "name": "ActionVoided",
      "type": "event"
    },
    {
      "anonymous": false,
      "inputs": [
        {
          "indexed": true,
          "name": "actionId",
          "type": "uint256"
        },
        {
          "indexed": true,
          "name": "challengeId",
          "type": "uint256"
        }
      ],
      "name": "ActionRejected",
      "type": "event"
    },
    {
      "anonymous": false,
      "inputs": [
        {
          "indexed": true,
          "name": "arbitrator",
          "type": "address"
        },
        {
          "indexed": true,
          "name": "disputeId",
          "type": "uint256"
        },
        {
          "indexed": false,
          "name": "ruling",
          "type": "uint256"
        }
      ],
      "name": "Ruled",
      "type": "event"
    }
  ],
  "transactionHash": "0x9e7b424b3a5d2b90b5338eed89f58d66499081a82989e0f98c950d7bb56e4e21",
  "args": [],
  "bytecode": "0x6080604052620000176401000000006200001d810204565b6200023b565b6200003064010000000062000125810204565b60408051808201909152601881527f494e49545f414c52454144595f494e495449414c495a45440000000000000000602082015290156200010c576040517f08c379a00000000000000000000000000000000000000000000000000000000081526004018080602001828103825283818151815260200191508051906020019080838360005b83811015620000d0578181015183820152602001620000b6565b50505050905090810190601f168015620000fe5780820380516001836020036101000a031916815260200191505b509250505060405180910390fd5b506200012360001964010000000062000154810204565b565b60006200014f60008051602062005fec833981519152640100000000620050c46200023382021704565b905090565b6200016764010000000062000125810204565b60408051808201909152601881527f494e49545f414c52454144595f494e495449414c495a454400000000000000006020820152901562000206576040517f08c379a000000000000000000000000000000000000000000000000000000000815260040180806020018281038252838181518152602001915080519060200190808383600083811015620000d0578181015183820152602001620000b6565b506200023060008051602062005fec83398151915282640100000000620056ab6200023782021704565b50565b5490565b9055565b615da1806200024b6000396000f3006080604052600436106102365763ffffffff600080516020615d5683398151915260003504166301ffc9a7811461023b57806305132b1a14610289578063079239d4146102ad5780630803fac0146102e95780631180b553146102fe5780631bdd4b7414610338578063221ce7c31461044357806329134768146104a05780632914b9bd146104d15780632a1510901461052a5780632cfbcf1b146105635780632d7b6fba1461058a5780632edc71ba146105cf5780632fb1b25f146105ec57806332c6534b1461060457806332f0a3b51461062857806336e21a571461063d5780633a9996041461066b5780633b92da72146106a55780633c711e3b146106bd5780633e838152146106d55780633ea053eb146106ed57806340b437011461070e5780634f896d4f1461083657806365af52481461084e5780636ab6802b1461088d57806376740b5b146108a55780637e7db6e1146108bd5780637e9adccf146108de57806380afdea8146108f65780638b3dd7491461090b5780638f911dca146109205780639d4941d814610935578063a1658fad14610956578063a479e508146109bd578063ac1b2335146109d2578063b658fb14146109ea578063b6e76873146109ff578063b86472b114610af3578063b9e9823f14610b2f578063beb12b9014610b58578063cd253d9914610b6d578063cd2b85db14610b82578063d4aae0c414610b9a578063de4796ed14610baf578063df69433b14610bc4578063e95fdd1d14610bdc578063f891e0e314610c0c575b600080fd5b34801561024757600080fd5b506102757fffffffff0000000000000000000000000000000000000000000000000000000060043516610c59565b604080519115158252519081900360200190f35b34801561029557600080fd5b50610275600435600160a060020a0360243516610cb6565b3480156102b957600080fd5b506102e7600160a060020a036004358116906024351667ffffffffffffffff60443516606435608435610ce2565b005b3480156102f557600080fd5b50610275610e21565b34801561030a57600080fd5b5061031f600160a060020a0360043516610e4b565b6040805192835290151560208301528051918290030190f35b34801561034457600080fd5b50610350600435610e61565b604051808b81526020018a600160a060020a0316600160a060020a031681526020018967ffffffffffffffff1667ffffffffffffffff168152602001806020018881526020018760058111156103a257fe5b60ff1681526020018615151515815260200185151515158152602001848152602001838152602001828103825289818151815260200191508051906020019080838360005b838110156103ff5781810151838201526020016103e7565b50505050905090810190601f16801561042c5780820380516001836020036101000a031916815260200191505b509b50505050505050505050505060405180910390f35b34801561044f57600080fd5b50610467600160a060020a0360043516602435610fb8565b60408051600160a060020a03909516855267ffffffffffffffff9093166020850152838301919091526060830152519081900360800190f35b3480156104ac57600080fd5b506104b561102c565b60408051600160a060020a039092168252519081900360200190f35b3480156104dd57600080fd5b506040805160206004803580820135601f81018490048402850184019095528484526104b594369492936024939284019190819084018382808284375094975061103b9650505050505050565b34801561053657600080fd5b50610275600160a060020a036004803582169160248035909116916044359160643590810191013561112b565b34801561056f57600080fd5b5061057861129a565b60408051918252519081900360200190f35b34801561059657600080fd5b506102e7600160a060020a03600480358216916024803515159260443580830193908201359260643590810192013590608435166112be565b3480156105db57600080fd5b506102e760043560243515156113f6565b3480156105f857600080fd5b506102e7600435611925565b34801561061057600080fd5b50610275600160a060020a0360043516602435611a96565b34801561063457600080fd5b506104b5611a9e565b34801561064957600080fd5b506102e760048035906024803591604435151591606435908101910135611b21565b34801561067757600080fd5b506102e7600160a060020a036004358116906024351667ffffffffffffffff60443516606435608435611dfc565b3480156106b157600080fd5b506102e7600435612103565b3480156106c957600080fd5b5061027560043561220f565b3480156106e157600080fd5b506102e7600435612231565b3480156106f957600080fd5b506102e7600160a060020a0360043516612505565b34801561071a57600080fd5b50610726600435612630565b6040518085600160a060020a0316600160a060020a0316815260200184600160a060020a0316600160a060020a031681526020018060200180602001838103835285818151815260200191508051906020019080838360005b8381101561079757818101518382015260200161077f565b50505050905090810190601f1680156107c45780820380516001836020036101000a031916815260200191505b50838103825284518152845160209182019186019080838360005b838110156107f75781810151838201526020016107df565b50505050905090810190601f1680156108245780820380516001836020036101000a031916815260200191505b50965050505050505060405180910390f35b34801561084257600080fd5b506102e7600435612785565b34801561085a57600080fd5b506102e760048035600160a060020a03169060248035151591604435808301929082013591606435918201910135612942565b34801561089957600080fd5b50610275600435612a72565b3480156108b157600080fd5b50610275600435612a89565b3480156108c957600080fd5b50610275600160a060020a0360043516612aa0565b3480156108ea57600080fd5b506102e7600435612aa6565b34801561090257600080fd5b50610578612c72565b34801561091757600080fd5b50610578612ca2565b34801561092c57600080fd5b50610578612ccd565b34801561094157600080fd5b506102e7600160a060020a0360043516612cf1565b34801561096257600080fd5b506040805160206004604435818101358381028086018501909652808552610275958335600160a060020a0316956024803596369695606495939492019291829185019084908082843750949750612f809650505050505050565b3480156109c957600080fd5b506104b56130da565b3480156109de57600080fd5b5061027560043561318f565b3480156109f657600080fd5b506105786131a8565b348015610a0b57600080fd5b50610a176004356131b2565b604051808a600160a060020a0316600160a060020a0316815260200189815260200188815260200187815260200186600160a060020a0316600160a060020a03168152602001851515151581526020018060200184815260200183151515158152602001828103825285818151815260200191508051906020019080838360005b83811015610ab0578181015183820152602001610a98565b50505050905090810190601f168015610add5780820380516001836020036101000a031916815260200191505b509a505050505050505050505060405180910390f35b348015610aff57600080fd5b50610b14600160a060020a0360043516613311565b60408051921515835260208301919091528051918290030190f35b348015610b3b57600080fd5b506102e76004803590602480359081019101356044351515613353565b348015610b6457600080fd5b506102e7613665565b348015610b7957600080fd5b5061057861372f565b348015610b8e57600080fd5b50610275600435613753565b348015610ba657600080fd5b506104b561376c565b348015610bbb57600080fd5b50610275613797565b348015610bd057600080fd5b506102756004356137aa565b348015610be857600080fd5b50610578600480359060248035908101910135600160a060020a03604435166137c3565b348015610c1857600080fd5b50610c246004356139c5565b60408051600160a060020a03958616815260208101949094529190931682820152606082019290925290519081900360800190f35b6000610c6482613a08565b80610cb057507fffffffff0000000000000000000000000000000000000000000000000000000082167f54053e6c00000000000000000000000000000000000000000000000000000000145b92915050565b600080610cc284613a52565b8054909150610cda90600160a060020a031684613afd565b949350505050565b604080516000808252602082019092527f2309a8cbbd5c3f18649f3b7ac47a0e7b99756c2ac146dda1ffc80d3f80827be690610d249033908390855b50612f80565b60408051808201909152600f81527f4150505f415554485f4641494c454400000000000000000000000000000000006020820152901515610de65760405160e560020a62461bcd0281526004018080602001828103825283818151815260200191508051906020019080838360005b83811015610dab578181015183820152602001610d93565b50505050905090810190601f168015610dd85780820380516001836020036101000a031916815260200191505b509250505060405180910390fd5b50600160a060020a03871660009081526004602052604090209150610e0a82613c72565b610e18878388888888613d01565b50505050505050565b600080610e2c612ca2565b90508015801590610e44575080610e41613f45565b10155b91505b5090565b600080610e5783613f49565b9094909350915050565b600080600060606000806000806000806000610e7c8c613f74565b905080600001549a508060010160009054906101000a9004600160a060020a031699508060010160149054906101000a900467ffffffffffffffff169850806002018054600181600116156101000203166002900480601f016020809104026020016040519081016040528092919081815260200182805460018160011615610100020316600290048015610f525780601f10610f2757610100808354040283529160200191610f52565b820191906000526020600020905b815481529060010190602001808311610f3557829003601f168201915b50505050509750806003015496508060080160009054906101000a900460ff1695508060080160019054906101000a900460ff1694508060080160029054906101000a900460ff1693508060090154925080600a01549150509193959799509193959799565b600160a060020a038216600090815260046020526040812081908190819081610fe18288614018565b80546001820154600290920154600160a060020a0382169b7401000000000000000000000000000000000000000090920467ffffffffffffffff169a50919850909650945050505050565b600054600160a060020a031681565b60006110456130da565b600160a060020a03166304bf2a7f836040518263ffffffff16600080516020615d568339815191520281526004018080602001828103825283818151815260200191508051906020019080838360005b838110156110ad578181015183820152602001611095565b50505050905090810190601f1680156110da5780820380516001836020036101000a031916815260200191505b5092505050602060405180830381600087803b1580156110f957600080fd5b505af115801561110d573d6000803e3d6000fd5b505050506040513d602081101561112357600080fd5b505192915050565b60408051808201909152601d81527f4147525f41434c5f4f5241434c455f5349474e45525f4d495353494e470000006020820152600090819081908185116111b85760405160e560020a62461bcd02815260040180806020018281038252838181518152602001915080519060200190808383600083811015610dab578181015183820152602001610d93565b5074010000000000000000000000000000000000000000858560008181106111dc57fe5b90506020020135106040805190810160405280601e81526020017f4147525f41434c5f4f5241434c455f5349474e45525f4e4f545f41444452000081525090151561126c5760405160e560020a62461bcd02815260040180806020018281038252838181518152602001915080519060200190808383600083811015610dab578181015183820152602001610d93565b508484600081811061127a57fe5b90506020020135915061128c82613f49565b159998505050505050505050565b7f2309a8cbbd5c3f18649f3b7ac47a0e7b99756c2ac146dda1ffc80d3f80827be681565b6112c66140cf565b6112cf81614197565b6040805190810160405280602081526020017f4147525f5354414b494e475f464143544f52595f4e4f545f434f4e54524143548152509015156113575760405160e560020a62461bcd02815260040180806020018281038252838181518152602001915080519060200190808383600083811015610dab578181015183820152602001610d93565b506000805473ffffffffffffffffffffffffffffffffffffffff1916600160a060020a03831617905560018080556005819055600755604080516020601f8701819004810282018101909252858152610e18918991899189908990819084018382808284375050604080516020601f8d018190048102820181019092528b815294508b93508a92508291508401838280828437506141bd945050505050565b60008060008060006060600080606061140e8b61433f565b98509850985061141d88614368565b60408051808201909152601981527f4147525f43414e4e4f545f444953505554455f414354494f4e0000000000000060208201529015156114a35760405160e560020a62461bcd02815260040180806020018281038252838181518152602001915080519060200190808383600083811015610dab578181015183820152602001610d93565b50600489015460408051808201909152601681527f4147525f53454e4445525f4e4f545f414c4c4f574544000000000000000000006020820152600160a060020a03909116965033871461153c5760405160e560020a62461bcd02815260040180806020018281038252838181518152602001915080519060200190808383600083811015610dab578181015183820152602001610d93565b50611546896143b2565b9450611550612c72565b60068a015460408051602081019390935282810191909152805180830382018152606090920190529350611586898987876143d3565b60088901546040517f7cb57c6400000000000000000000000000000000000000000000000000000000815260048101838152600160a060020a038a8116602484015260606044840190815260058f01805460026101006001831615026000190190911604606486018190529699506201000090950460ff169750908a1694637cb57c649489948d9491939192608490910190849080156116675780601f1061163c57610100808354040283529160200191611667565b820191906000526020600020905b81548152906001019060200180831161164a57829003601f168201915b5050945050505050600060405180830381600087803b15801561168957600080fd5b505af115801561169d573d6000803e3d6000fd5b5050505084600160a060020a0316637cb57c64848a60010160009054906101000a9004600160a060020a03168b6002016040518463ffffffff16600080516020615d568339815191520281526004018084815260200183600160a060020a0316600160a060020a03168152602001806020018281038252838181546001816001161561010002031660029004815260200191508054600181600116156101000203166002900480156117905780601f1061176557610100808354040283529160200191611790565b820191906000526020600020905b81548152906001019060200180831161177357829003601f168201915b5050945050505050600060405180830381600087803b1580156117b257600080fd5b505af11580156117c6573d6000803e3d6000fd5b505050508980156117d45750815b156118b6575060408051602480820185905282518083039091018152604490910182526020810180517bffffffffffffffffffffffffffffffffffffffffffffffffffffffff167f7e9adccf00000000000000000000000000000000000000000000000000000000178152915181519192600160a060020a03881692849291829180838360005b8381101561187357818101518382015260200161185b565b50505050905090810190601f1680156118a05780820380516001836020036101000a031916815260200191505b509150506000604051808303816000865af15050505b600888018054600260ff199091161761ff0019166101008c1515021790556009808901849055600084815260209190915260408082208990555188918d917fb2a3bed46edbfc66a891dcf5e64cb46ed0dc8ad2554ed69eac73085bc1e15b4d9190a35050505050505050505050565b33600090815260036020908152604091829020548251808401909352601983527f4147525f5349474e45525f414c52454144595f5349474e45440000000000000091830191909152908282106119c05760405160e560020a62461bcd02815260040180806020018281038252838181518152602001915080519060200190808383600083811015610dab578181015183820152602001610d93565b5060015460408051808201909152601b81527f4147525f494e56414c49445f5349474e494e475f53455454494e4700000000006020820152908310611a4a5760405160e560020a62461bcd02815260040180806020018281038252838181518152602001915080519060200190808383600083811015610dab578181015183820152602001610d93565b5033600081815260036020908152604091829020859055815185815291517ff4b7ab5b8fc49d6d35d323cae6a96e1441b461f862dfc5aff92e806e2839b5b09281900390910190a25050565b600092915050565b6000611aa861376c565b600160a060020a03166332f0a3b56040518163ffffffff16600080516020615d56833981519152028152600401602060405180830381600087803b158015611aef57600080fd5b505af1158015611b03573d6000803e3d6000fd5b505050506040513d6020811015611b1957600080fd5b505190505b90565b600080600080611b3089613a52565b9350611b3b846145bc565b60408051808201909152601b81527f4147525f43414e4e4f545f4348414c4c454e47455f414354494f4e00000000006020820152901515611bc15760405160e560020a62461bcd02815260040180806020018281038252838181518152602001915080519060200190808383600083811015610dab578181015183820152602001610d93565b50611bcb84614639565b92509250611bd98333613afd565b6040805190810160405280602081526020017f4147525f53454e4445525f43414e545f4348414c4c454e47455f414354494f4e815250901515611c615760405160e560020a62461bcd02815260040180806020018281038252838181518152602001915080519060200190808383600083811015610dab578181015183820152602001610d93565b50600182015460408051808201909152601c81527f4147525f494e56414c49445f534554544c454d454e545f4f4646455200000000602082015290891115611cee5760405160e560020a62461bcd02815260040180806020018281038252838181518152602001915080519060200190808383600083811015610dab578181015183820152602001610d93565b50611d2e898533858c8c8c8c8080601f0160208091040260200160405190810160405280939291908181526020018383808284375061466a945050505050565b600685018190556001850154604080517f7f439ce000000000000000000000000000000000000000000000000000000000815260048101929092526024820183905233604483015251919250600160a060020a03851691637f439ce09160648082019260009290919082900301818387803b158015611dac57600080fd5b505af1158015611dc0573d6000803e3d6000fd5b50506040518392508b91507f43e6ee6f565b58c6e3d7d297e76958632fc3e845fa6346b569d81205408855a890600090a3505050505050505050565b60408051600080825260208201909252819081907f2309a8cbbd5c3f18649f3b7ac47a0e7b99756c2ac146dda1ffc80d3f80827be690611e40903390839085610d1e565b60408051808201909152600f81527f4150505f415554485f4641494c454400000000000000000000000000000000006020820152901515611ec65760405160e560020a62461bcd02815260040180806020018281038252838181518152602001915080519060200190808383600083811015610dab578181015183820152602001610d93565b50611ed089614197565b60408051808201909152601b81527f4147525f44495350555441424c455f4e4f545f434f4e545241435400000000006020820152901515611f565760405160e560020a62461bcd02815260040180806020018281038252838181518152602001915080519060200190808383600083811015610dab578181015183820152602001610d93565b50600160a060020a03891660009081526004602052604090209350611f7a8461487e565b835460ff19166001178455604080517fbca60cf500000000000000000000000000000000000000000000000000000000815290518a94503091600160a060020a0386169163bca60cf5916004808201926020929091908290030181600087803b158015611fe657600080fd5b505af1158015611ffa573d6000803e3d6000fd5b505050506040513d602081101561201057600080fd5b5051600160a060020a0316146120b657604080517f1e9ae2f40000000000000000000000000000000000000000000000000000000081523060048201529051600160a060020a03851691631e9ae2f491602480830192600092919082900301818387803b15801561208057600080fd5b505af1158015612094573d6000803e3d6000fd5b5050505083600101549150600082116120ae5760016120b0565b815b60018501555b6120c483858a8a8a8a613d01565b604051600160a060020a038416907fd0ffe42a6295a578201aed3601630a6136d6e00fda266cf0dbf9dd7be1c11a7990600090a2505050505050505050565b60008061210f83613a52565b600481015490925074010000000000000000000000000000000000000000900460ff161561213c5761220a565b61214582614908565b60408051808201909152601781527f4147525f43414e4e4f545f434c4f53455f414354494f4e00000000000000000060208201529015156121cb5760405160e560020a62461bcd02815260040180806020018281038252838181518152602001915080519060200190808383600083811015610dab578181015183820152602001610d93565b506121d582614639565b6003810154600485015460018301549294506122009350600160a060020a03918216929116906149c2565b61220a8383614a53565b505050565b60008061221b8361433f565b5091505061222881614ac3565b91505b50919050565b60008060008060008060008060008060008061224c8d61433f565b6004830154929e50909c509a50600160a060020a0316985033891415612301576122758b614ae2565b60408051808201909152601881527f4147525f43414e4e4f545f534554544c455f414354494f4e000000000000000060208201529015156122fb5760405160e560020a62461bcd02815260040180806020018281038252838181518152602001915080519060200190808383600083811015610dab578181015183820152602001610d93565b50612392565b61230a8b614aed565b60408051808201909152601881527f4147525f43414e4e4f545f534554544c455f414354494f4e000000000000000060208201529015156123905760405160e560020a62461bcd02815260040180806020018281038252838181518152602001915080519060200190808383600083811015610dab578181015183820152602001610d93565b505b61239b8c614639565b97509750866001015495508a600301549450858510156123bb57846123bd565b855b60018c015460038901549195508588039450600160a060020a0390811693501690506123ea818a856149c2565b6123f6818a8487614b36565b8654600288015461241291600160a060020a0316908490614bbb565b60048b015460058c015461243191600160a060020a0316908490614bbb565b60088b01805460ff191660019081179091558c0154604080517ff83a1515000000000000000000000000000000000000000000000000000000008152600481019290925251600160a060020a038a169163f83a151591602480830192600092919082900301818387803b1580156124a757600080fd5b505af11580156124bb573d6000803e3d6000fd5b50506040518c92508f91507f1085b774562bcd99aae2e239890e1fe1922552d9a331eae9dc755d535d2bca0e90600090a36124f68d8d614a53565b50505050505050505050505050565b604080516000808252602082019092527f2309a8cbbd5c3f18649f3b7ac47a0e7b99756c2ac146dda1ffc80d3f80827be690612545903390839085610d1e565b60408051808201909152600f81527f4150505f415554485f4641494c4544000000000000000000000000000000000060208201529015156125cb5760405160e560020a62461bcd02815260040180806020018281038252838181518152602001915080519060200190808383600083811015610dab578181015183820152602001610d93565b50600160a060020a038316600090815260046020526040902091506125ef82613c72565b815460ff19168255604051600160a060020a038416907f0856d2e58a20e983094def11432f91b5603c266814eecf5189accda0edd92a5a90600090a2505050565b600080606080600061264186614c64565b805460018083015460028085018054604080516020601f600019988516156101000298909801909316949094049586018290048202840182019052848352600160a060020a039586169b509290941698509394508301828280156126e65780601f106126bb576101008083540402835291602001916126e6565b820191906000526020600020905b8154815290600101906020018083116126c957829003601f168201915b5050505060038301805460408051602060026001851615610100026000190190941693909304601f81018490048402820184019092528181529497509192508301828280156127765780601f1061274b57610100808354040283529160200191612776565b820191906000526020600020905b81548152906001019060200180831161275957829003601f168201915b50505050509150509193509193565b60008060008060008061279787614d0f565b95509550955095506127a883614ac3565b60408051808201909152601681527f4147525f43414e4e4f545f52554c455f414354494f4e00000000000000000000602082015290151561282e5760405160e560020a62461bcd02815260040180806020018281038252838181518152602001915080519060200190808383600083811015610dab578181015183820152602001610d93565b50612838856143b2565b915081600160a060020a031663db18af6c886040518263ffffffff16600080516020615d56833981519152028152600401808281526020019150506040805180830381600087803b15801561288c57600080fd5b505af11580156128a0573d6000803e3d6000fd5b505050506040513d60408110156128b657600080fd5b50602090810151600a85018190556040805182815290519193508992600160a060020a038616927f56c8631a8915c0d362dbe57a61215fdde954f73f81c8a3a1f55572fb015207b19281900390910190a360048114156129215761291c86868686614d42565b610e18565b60038114156129365761291c86868686614e53565b610e1886868686614f8d565b604080516000808252602082019092527f07813bca4905795fa22783885acd0167950db28f2d7a40b70f666f429e19f1d991612982913391849190610d1e565b60408051808201909152600f81527f4150505f415554485f4641494c454400000000000000000000000000000000006020820152901515612a085760405160e560020a62461bcd02815260040180806020018281038252838181518152602001915080519060200190808383600083811015610dab578181015183820152602001610d93565b50610e18878787878080601f0160208091040260200160405190810160405280939291908181526020018383808284375050604080516020601f8d018190048102820181019092528b815294508b93508a92508291508401838280828437506141bd945050505050565b600080612a7e83613a52565b9050612228816145bc565b600080612a9583613a52565b905061222881614908565b50600090565b6000806000612ab484614d0f565b945050935050612ac382614ac3565b60408051808201909152601a81527f4147525f43414e4e4f545f5355424d49545f45564944454e43450000000000006020820152901515612b495760405160e560020a62461bcd02815260040180806020018281038252838181518152602001915080519060200190808383600083811015610dab578181015183820152602001610d93565b506008820154610100900460ff168015612b6d5750600882015462010000900460ff165b6040805190810160405280602081526020017f4147525f43414e4e4f545f434c4f53455f45564944454e43455f504552494f44815250901515612bf55760405160e560020a62461bcd02815260040180806020018281038252838181518152602001915080519060200190808383600083811015610dab578181015183820152602001610d93565b50612bff836143b2565b905080600160a060020a0316637e9adccf856040518263ffffffff16600080516020615d5683398151915202815260040180828152602001915050600060405180830381600087803b158015612c5457600080fd5b505af1158015612c68573d6000803e3d6000fd5b5050505050505050565b6000612c9d7fd625496217aa6a3453eecb9c3489dc5a53e6c67b444329ea2b2cbc9ff547639b6150c4565b905090565b6000612c9d7febb05b386a8d34882b8711d156f463690983dc47815980fb82aeeff1aa43579e6150c4565b7fef025787d7cd1a96d9014b8dc7b44899b8c1350859fb9e1e05f5a546dd65158d81565b6000806000612cff84612aa0565b60408051808201909152601281527f5245434f5645525f444953414c4c4f57454400000000000000000000000000006020820152901515612d855760405160e560020a62461bcd02815260040180806020018281038252838181518152602001915080519060200190808383600083811015610dab578181015183820152602001610d93565b50612d8e611a9e565b9250612d9983614197565b60408051808201909152601a81527f5245434f5645525f5641554c545f4e4f545f434f4e54524143540000000000006020820152901515612e1f5760405160e560020a62461bcd02815260040180806020018281038252838181518152602001915080519060200190808383600083811015610dab578181015183820152602001610d93565b50600160a060020a0384161515612e705760405130319250600160a060020a0384169083156108fc029084906000818181858888f19350505050158015612e6a573d6000803e3d6000fd5b50612f2f565b5082612e8b600160a060020a0382163063ffffffff6150cc16565b9150612ea7600160a060020a038216848463ffffffff6151e116565b60408051808201909152601d81527f5245434f5645525f544f4b454e5f5452414e534645525f4641494c45440000006020820152901515612f2d5760405160e560020a62461bcd02815260040180806020018281038252838181518152602001915080519060200190808383600083811015610dab578181015183820152602001610d93565b505b83600160a060020a031683600160a060020a03167f596caf56044b55fb8c4ca640089bbc2b63cae3e978b851f5745cbb7c5b288e02846040518082815260200191505060405180910390a350505050565b600080612f8b610e21565b1515612f9a57600091506130d2565b612fa261376c565b9050600160a060020a0381161515612fbd57600091506130d2565b80600160a060020a031663fdef9106863087612fd88861526c565b604051600080516020615d5683398151915263ffffffff8716028152600160a060020a03808616600483019081529085166024830152604482018490526080606483019081528351608484015283519192909160a490910190602085019080838360005b8381101561305457818101518382015260200161303c565b50505050905090810190601f1680156130815780820380516001836020036101000a031916815260200191505b5095505050505050602060405180830381600087803b1580156130a357600080fd5b505af11580156130b7573d6000803e3d6000fd5b505050506040513d60208110156130cd57600080fd5b505191505b509392505050565b6000806130e561376c565b604080517fbe00bbd80000000000000000000000000000000000000000000000000000000081527fd6f028ca0e8edb4a8c9757ca4fdccab25fa1e0317da1188108f7d2dee14902fb60048201527fddbcfd564f642ab5627cf68b9b7d374fb4f8a36e941a75d89c87998cef03bd6160248201529051600160a060020a03929092169163be00bbd8916044808201926020929091908290030181600087803b1580156110f957600080fd5b60008061319b8361433f565b5091505061222881614368565b6000612c9d615276565b60008060008060008060606000806000806131cc8c613a52565b91508160000160009054906101000a9004600160a060020a03169a508160010154995081600201549850816003015497508160040160009054906101000a9004600160a060020a031696508160040160149054906101000a900460ff169550816005018054600181600116156101000203166002900480601f0160208091040260200160405190810160405280929190818152602001828054600181600116156101000203166002900480156132c35780601f10613298576101008083540402835291602001916132c3565b820191906000526020600020905b8154815290600101906020018083116132a657829003601f168201915b50505050509450816006015493506000841115613302576132e38c61433f565b509150506132f08161528c565b806132ff57506132ff81614ac3565b92505b50509193959799909294969850565b600160a060020a03811660009081526004602052604081208054600182015460ff9091169291908015613347576001810361334a565b60005b92505050915091565b600080600080600061336489614d0f565b96505095505061337384614ac3565b60408051808201909152601a81527f4147525f43414e4e4f545f5355424d49545f45564944454e434500000000000060208201529015156133f95760405160e560020a62461bcd02815260040180806020018281038252838181518152602001915080519060200190808383600083811015610dab578181015183820152602001610d93565b50613403856143b2565b6004860154909350600160a060020a03163314156134f0576008840154610100900460ff16806134305750855b6040517f7cb57c64000000000000000000000000000000000000000000000000000000008152600481018b81523360248301819052606060448401908152606484018c9052939550600160a060020a03871693637cb57c64938e938e928e92608401848480828437820191505095505050505050600060405180830381600087803b1580156134be57600080fd5b505af11580156134d2573d6000803e3d6000fd5b5050505060088401805461ff0019166101008415150217905561365a565b6001840154600160a060020a03163314156135dd57600884015462010000900460ff168061351b5750855b6040517f7cb57c64000000000000000000000000000000000000000000000000000000008152600481018b81523360248301819052606060448401908152606484018c9052939450600160a060020a03871693637cb57c64938e938e928e92608401848480828437820191505095505050505050600060405180830381600087803b1580156135a957600080fd5b505af11580156135bd573d6000803e3d6000fd5b5050505060088401805462ff00001916620100008315150217905561365a565b604080518082018252601681527f4147525f53454e4445525f4e4f545f414c4c4f574544000000000000000000006020808301918252925160e560020a62461bcd02815260048101938452825160248201528251929392839260449092019190808383600083811015610dab578181015183820152602001610d93565b505050505050505050565b600080600061367a613675615276565b614c64565b805490935061369190600160a060020a0316615294565b6001840154909250600160a060020a0316905080158015906136c5575081600160a060020a031681600160a060020a031614155b1561220a57600183018054600160a060020a03841673ffffffffffffffffffffffffffffffffffffffff19909116811790915560408051918252517f5c20330e5ee6de3e038fed5a36f3a187d54bd029f64795d55ef2c4c8f6f9f0579181900360200190a1505050565b7f07813bca4905795fa22783885acd0167950db28f2d7a40b70f666f429e19f1d981565b60008061375f8361433f565b5091505061222881614aed565b6000612c9d7f4172f0f7d2289153072b0a6ca36959e0cbe2efc3afe50fc81636caa96338137b6150c4565b60006000196137a4612ca2565b14905090565b6000806137b68361433f565b5091505061222881614ae2565b33600090815260046020526040812081808080808080806137e389613c72565b6137eb615276565b600160a060020a038c16600090815260036020908152604091829020548251808401909352601483527f4147525f5349474e45525f4d5553545f5349474e000000000000000000000000918301919091529199509097508789146138945760405160e560020a62461bcd02815260040180806020018281038252838181518152602001915080519060200190808383600083811015610dab578181015183820152602001610d93565b50600189600101540395506138a98987614018565b600381015460018201549196506138cd91600160a060020a03909116908d90615323565b6005805460018101909155600081815260066020526040902090945092506138f488614c64565b915033905061390582828d8761539c565b808360000160006101000a815481600160a060020a030219169083600160a060020a031602179055508d83600101819055508583600201819055508783600301819055508a8360040160006101000a815481600160a060020a030219169083600160a060020a031602179055508c8c846005019190613985929190615c53565b50604051339085907fdaa0424e8d4e6b8fe642d59657ad0644830036b48391ed9f3e246a0f440809ae90600090a350919c9b505050505050505050505050565b60008060008060006139d686613f74565b600681015460078201546004830154600590930154600160a060020a039283169a919950919092169650945092505050565b7fffffffff0000000000000000000000000000000000000000000000000000000081167f01ffc9a70000000000000000000000000000000000000000000000000000000014919050565b60008082118015613a64575060055482105b60408051808201909152601981527f4147525f414354494f4e5f444f45535f4e4f545f4558495354000000000000006020820152901515613aea5760405160e560020a62461bcd02815260040180806020018281038252838181518152602001915080519060200190808383600083811015610dab578181015183820152602001610d93565b5050600090815260066020526040902090565b6000806060613b0a61376c565b9150600160a060020a0382161515613b255760009250613c6a565b613b36613b3185615683565b61526c565b6040517ffdef9106000000000000000000000000000000000000000000000000000000008152600160a060020a038681166004830190815288821660248401527fef025787d7cd1a96d9014b8dc7b44899b8c1350859fb9e1e05f5a546dd65158d604484018190526080606485019081528551608486015285519596509287169463fdef9106948a948c948993909260a40190602085019080838360005b83811015613bec578181015183820152602001613bd4565b50505050905090810190601f168015613c195780820380516001836020036101000a031916815260200191505b5095505050505050602060405180830381600087803b158015613c3b57600080fd5b505af1158015613c4f573d6000803e3d6000fd5b505050506040513d6020811015613c6557600080fd5b505192505b505092915050565b805460408051808201909152601981527f4147525f44495350555441424c455f4e4f545f4143544956450000000000000060208201529060ff161515613cfd5760405160e560020a62461bcd02815260040180806020018281038252838181518152602001915080519060200190808383600083811015610dab578181015183820152602001610d93565b5050565b6000806000613d0f87614197565b60408051808201909152601681527f4147525f544f4b454e5f4e4f545f434f4e5452414354000000000000000000006020820152901515613d955760405160e560020a62461bcd02815260040180806020018281038252838181518152602001915080519060200190808383600083811015610dab578181015183820152602001610d93565b5060008054604080517fc646a93c000000000000000000000000000000000000000000000000000000008152600160a060020a038b811660048301529151919092169263c646a93c92602480820193602093909283900390910190829087803b158015613e0157600080fd5b505af1158015613e15573d6000803e3d6000fd5b505050506040513d6020811015613e2b57600080fd5b810190808051906020019092919050505092508760010160008154809291906001019190505591508760020160008381526020019081526020016000209050868160000160006101000a815481600160a060020a030219169083600160a060020a03160217905550858160000160146101000a81548167ffffffffffffffff021916908367ffffffffffffffff160217905550848160010181905550838160020181905550828160030160006101000a815481600160a060020a030219169083600160a060020a0316021790555088600160a060020a03167f4efea8c074f09ca85002d7b9f73509f40f8e954cef7bf647c8a1fc69ad58d9c5836040518082815260200191505060405180910390a2505050505050505050565b4390565b600160a060020a03811660009081526003602052604081205490613f6b615276565b82109050915091565b6000613f7f82615697565b60408051808201909152601c81527f4147525f4348414c4c454e47455f444f45535f4e4f545f45584953540000000060208201529015156140055760405160e560020a62461bcd02815260040180806020018281038252838181518152602001915080519060200190808383600083811015610dab578181015183820152602001610d93565b5050600090815260086020526040902090565b60008060008311801561402e5750836001015483105b60408051808201909152601a81527f4147525f434f4c5f5245515f444f45535f4e4f545f455849535400000000000060208201529091508115156140b75760405160e560020a62461bcd02815260040180806020018281038252838181518152602001915080519060200190808383600083811015610dab578181015183820152602001610d93565b50505060009081526002919091016020526040902090565b6140d7612ca2565b60408051808201909152601881527f494e49545f414c52454144595f494e495449414c495a454400000000000000006020820152901561415c5760405160e560020a62461bcd02815260040180806020018281038252838181518152602001915080519060200190808383600083811015610dab578181015183820152602001610d93565b50614195614168613f45565b7febb05b386a8d34882b8711d156f463690983dc47815980fb82aeeff1aa43579e9063ffffffff6156ab16565b565b600080600160a060020a03831615156141b3576000915061222b565b50506000903b1190565b6000806141c986614197565b60408051808201909152601b81527f4147525f41524249545241544f525f4e4f545f434f4e54524143540000000000602082015290151561424f5760405160e560020a62461bcd02815260040180806020018281038252838181518152602001915080519060200190808383600083811015610dab578181015183820152602001610d93565b50506001805480820190915560008181526002602081815260409092208651939450926142829291840191870190615ccd565b5082516142989060038301906020860190615ccd565b50805473ffffffffffffffffffffffffffffffffffffffff1916600160a060020a038716178155846142cb5760006142d4565b6142d486615294565b60018201805473ffffffffffffffffffffffffffffffffffffffff1916600160a060020a03929092169190911790556040805183815290517fae9caf5307484416d509bfcd90a554f883f557bf4d6ea368bdd803b7ec174cb6916020908290030190a1505050505050565b600080600061434d84613a52565b92508260060154905061435f81613f74565b91509193909250565b60006143738261528c565b8015610cb057506143826156af565b600183015467ffffffffffffffff7401000000000000000000000000000000000000000090910416119050919050565b6000806143c28360030154614c64565b54600160a060020a03169392505050565b60008060008060008087600160a060020a0316637b751b9e6040518163ffffffff16600080516020615d56833981519152028152600401606060405180830381600087803b15801561442457600080fd5b505af1158015614438573d6000803e3d6000fd5b505050506040513d606081101561444e57600080fd5b508051602082015160409092015160068c01805473ffffffffffffffffffffffffffffffffffffffff1916600160a060020a038086169190911790915560078d0182905560048e015492985092965094501691506144ad8483856156b3565b6144b884868561575d565b604080517fc13517e1000000000000000000000000000000000000000000000000000000008152600260048201818152602483019384528a5160448401528a51600160a060020a038d169463c13517e1948d9392606490910190602085019080838360005b8381101561453557818101518382015260200161451d565b50505050905090810190601f1680156145625780820380516001836020036101000a031916815260200191505b509350505050602060405180830381600087803b15801561458257600080fd5b505af1158015614596573d6000803e3d6000fd5b505050506040513d60208110156145ac57600080fd5b50519a9950505050505050505050565b60006145c7826158a8565b8015610cb0575081546001830154604080517f6ab6802b000000000000000000000000000000000000000000000000000000008152600481019290925251600160a060020a0390921691636ab6802b916024808201926020929091908290030181600087803b1580156110f957600080fd5b8054600160a060020a031660008181526004602052604081206002840154614662908290614018565b915050915091565b60078054600180820190925560008181526008602052604081208a8155928301805473ffffffffffffffffffffffffffffffffffffffff1916600160a060020a038a1617905586549092908390819081906146ff9074010000000000000000000000000000000000000000900467ffffffffffffffff166146e9615937565b67ffffffffffffffff169063ffffffff61594916565b60018501805467ffffffffffffffff9290921674010000000000000000000000000000000000000000027fffffffff0000000000000000ffffffffffffffffffffffffffffffffffffffff909216919091179055865161476890600286019060208a0190615ccd565b506003840189905560088401805462ff00001916620100008a151502179055895460028b01546147a391600160a060020a0316908d906156b3565b6147ac8c6143b2565b925082600160a060020a0316637b751b9e6040518163ffffffff16600080516020615d56833981519152028152600401606060405180830381600087803b1580156147f657600080fd5b505af115801561480a573d6000803e3d6000fd5b505050506040513d606081101561482057600080fd5b50602081015160409091015160048601805473ffffffffffffffffffffffffffffffffffffffff1916600160a060020a03841617905560058601819055909250905061486d828c836156b3565b50929b9a5050505050505050505050565b805460408051808201909152601d81527f4147525f44495350555441424c455f414c52454144595f41435449564500000060208201529060ff1615613cfd5760405160e560020a62461bcd02815260040180806020018281038252838181518152602001915080519060200190808383600083811015610dab578181015183820152602001610d93565b600080614914836158a8565b1515614923576000915061222b565b508154600160a060020a031633811480612228575080600160a060020a03166376740b5b84600101546040518263ffffffff16600080516020615d5683398151915202815260040180828152602001915050602060405180830381600087803b15801561498f57600080fd5b505af11580156149a3573d6000803e3d6000fd5b505050506040513d60208110156149b957600080fd5b50519392505050565b8015156149ce5761220a565b604080517f59508f8f000000000000000000000000000000000000000000000000000000008152600160a060020a038481166004830152306024830152604482018490529151918516916359508f8f9160648082019260009290919082900301818387803b158015614a3f57600080fd5b505af1158015610e18573d6000803e3d6000fd5b6004810180547fffffffffffffffffffffff00ffffffffffffffffffffffffffffffffffffffff167401000000000000000000000000000000000000000017905560405182907ffd0589b9682733317d7f3b84a13bb57660efd49cad1cf97d6e04eec435ce605c90600090a25050565b600060025b600883015460ff166005811115614adb57fe5b1492915050565b6000610cb08261528c565b6000614af88261528c565b8015610cb05750600182015474010000000000000000000000000000000000000000900467ffffffffffffffff16614b2e6156af565b101592915050565b801515614b4257614bb5565b604080517f58f21872000000000000000000000000000000000000000000000000000000008152600160a060020a0385811660048301528481166024830152604482018490529151918616916358f218729160648082019260009290919082900301818387803b158015612c5457600080fd5b50505050565b600081111561220a57614bde600160a060020a038416838363ffffffff6151e116565b60408051808201909152601981527f4147525f544f4b454e5f5452414e534645525f4641494c4544000000000000006020820152901515614bb55760405160e560020a62461bcd02815260040180806020018281038252838181518152602001915080519060200190808383600083811015610dab578181015183820152602001610d93565b60008082118015614c76575060015482105b60408051808201909152601a81527f4147525f53455454494e475f444f45535f4e4f545f45584953540000000000006020820152901515614cfc5760405160e560020a62461bcd02815260040180806020018281038252838181518152602001915080519060200190808383600083811015610dab578181015183820152602001610d93565b5050600090815260026020526040902090565b600081815260096020526040812054819081614d2a82613f74565b805494509050614d3984613a52565b92509193509193565b60088101805460ff191660031790556004830154600160a060020a0316600080614d6b86614639565b80546002820154929450909250614d8f91600160a060020a03909116908590614bbb565b60048401546005850154614dae91600160a060020a0316908590614bbb565b81600160a060020a0316637ad267b687600101546040518263ffffffff16600080516020615d5683398151915202815260040180828152602001915050600060405180830381600087803b158015614e0557600080fd5b505af1158015614e19573d6000803e3d6000fd5b50506040518792508991507fe22a91e75f41c1eb6b719a97482597fdbe1a132d3287933498dba5467d59a68790600090a350505050505050565b60088101805460ff191660041790556001810154600160a060020a0316600080614e7c86614639565b600381015460048901546001830154939550919350614eac92600160a060020a0391821692909116908690614b36565b80546002820154614ec891600160a060020a0316908590614bbb565b60048401546005850154614ee791600160a060020a0316908590614bbb565b81600160a060020a031663f83a151587600101546040518263ffffffff16600080516020615d5683398151915202815260040180828152602001915050600060405180830381600087803b158015614f3e57600080fd5b505af1158015614f52573d6000803e3d6000fd5b50506040518792508991507fe1a2ee51259a3832b7a409c9ac09f6749999247798a2b9034c17bbb8431747b790600090a3610e188787614a53565b60088101805460ff191660051790556000808080808080614fad8a614639565b60018a015481546002830154939a50919850600160a060020a039081169750614fda929116908790614bbb565b50505050600484810154600586015491880154600160a060020a0391821692916002830491828403916150109186911684614bbb565b61501b848683614bbb565b86600160a060020a031663b08630638b600101546040518263ffffffff16600080516020615d5683398151915202815260040180828152602001915050600060405180830381600087803b15801561507257600080fd5b505af1158015615086573d6000803e3d6000fd5b50506040518b92508d91507f6fc5fbdcd245dd8caeb8ddbdd14c7a3cb8c2ce5b6a5d654e2f2b4dd64426be7390600090a35050505050505050505050565b5490565b5490565b60408051600160a060020a0383166024808301919091528251808303909101815260449091019091526020810180517bffffffffffffffffffffffffffffffffffffffffffffffffffffffff167f70a0823100000000000000000000000000000000000000000000000000000000179052600090818061514c86846159e4565b60408051808201909152601c81527f534146455f4552435f32305f42414c414e43455f524556455254454400000000602082015291935091508215156151d75760405160e560020a62461bcd02815260040180806020018281038252838181518152602001915080519060200190808383600083811015610dab578181015183820152602001610d93565b5095945050505050565b60408051600160a060020a038416602482015260448082018490528251808303909101815260649091019091526020810180517bffffffffffffffffffffffffffffffffffffffffffffffffffffffff167fa9059cbb000000000000000000000000000000000000000000000000000000001790526000906152638582615a15565b95945050505050565b8051602002815290565b6000600154600014612aa0576001805403612c9d565b600080614ac8565b604080517fe3f2311e00000000000000000000000000000000000000000000000000000000815230600482015290516000918291600160a060020a0385169163e3f2311e91602480830192606092919082900301818787803b1580156152f957600080fd5b505af115801561530d573d6000803e3d6000fd5b505050506040513d60608110156149b957600080fd5b80151561532f5761220a565b82600160a060020a031663282d3fdf83836040518363ffffffff16600080516020615d568339815191520281526004018083600160a060020a0316600160a060020a0316815260200182815260200192505050600060405180830381600087803b158015614a3f57600080fd5b6001840154600160a060020a031660008080808415156153bb5761365a565b87600160a060020a03166380afdea86040518163ffffffff16600080516020615d56833981519152028152600401602060405180830381600087803b15801561540357600080fd5b505af1158015615417573d6000803e3d6000fd5b505050506040513d602081101561542d57600080fd5b5051604080517fdc6839ba000000000000000000000000000000000000000000000000000000008152600481018390528151929650600160a060020a0388169263dc6839ba926024808401939192918290030181600087803b15801561549257600080fd5b505af11580156154a6573d6000803e3d6000fd5b505050506040513d60408110156154bc57600080fd5b50805160209091015190935091508115156154d65761365a565b60008054604080517fc646a93c000000000000000000000000000000000000000000000000000000008152600160a060020a0387811660048301529151919092169263c646a93c92602480820193602093909283900390910190829087803b15801561554157600080fd5b505af1158015615555573d6000803e3d6000fd5b505050506040513d602081101561556b57600080fd5b5051905061557a818884615323565b61558681883085614b36565b61559183868461575d565b6040805160208082018990528251808303820181528284018085527fe21b27780000000000000000000000000000000000000000000000000000000090526044830188815260648401948552815160848501528151600160a060020a038b169563e21b2778958b95919260a49091019185019080838360005b8381101561562257818101518382015260200161560a565b50505050905090810190601f16801561564f5780820380516001836020036101000a031916815260200191505b509350505050600060405180830381600087803b15801561566f57600080fd5b505af11580156124f6573d6000803e3d6000fd5b6060610cb082600160a060020a0316615a63565b60008082118015610cb05750506007541190565b9055565b4290565b600081111561220a576156d7600160a060020a03841683308463ffffffff615aa416565b60408051808201909152601881527f4147525f544f4b454e5f4445504f5349545f4641494c454400000000000000006020820152901515614bb55760405160e560020a62461bcd02815260040180806020018281038252838181518152602001915080519060200190808383600083811015610dab578181015183820152602001610d93565b600081111561220a57615781600160a060020a03841683600063ffffffff615b3816565b60408051808201909152601981527f4147525f544f4b454e5f415050524f56414c5f4641494c45440000000000000060208201529015156158075760405160e560020a62461bcd02815260040180806020018281038252838181518152602001915080519060200190808383600083811015610dab578181015183820152602001610d93565b50615822600160a060020a038416838363ffffffff615b3816565b60408051808201909152601981527f4147525f544f4b454e5f415050524f56414c5f4641494c4544000000000000006020820152901515614bb55760405160e560020a62461bcd02815260040180806020018281038252838181518152602001915080519060200190808383600083811015610dab578181015183820152602001610d93565b6000806000808460040160149054906101000a900460ff16156158ce576000935061592f565b846006015492506158de83615697565b15156158ed576001935061592f565b505060008181526008602081905260409091209081015460ff16600381600581111561591557fe5b148061592c5750600581600581111561592a57fe5b145b93505b505050919050565b6000612c9d6159446156af565b615bba565b60408051808201909152601381527f4d41544836345f4144445f4f564552464c4f570000000000000000000000000060208201526000908383019067ffffffffffffffff80861690831610156130d25760405160e560020a62461bcd02815260040180806020018281038252838181518152602001915080519060200190808383600083811015610dab578181015183820152602001610d93565b6000806000806040516020818751602089018a5afa92506000831115615a0957805191505b50909590945092505050565b6000806040516020818551602087016000895af16000811115615a59573d8015615a465760208114615a4f57615a57565b60019350615a57565b600183511493505b505b5090949350505050565b6040805160018082528183019092526060916020808301908038833901905050905081816000815181101515615a9557fe5b60209081029091010152919050565b60408051600160a060020a0385811660248301528416604482015260648082018490528251808303909101815260849091019091526020810180517bffffffffffffffffffffffffffffffffffffffffffffffffffffffff167f23b872dd00000000000000000000000000000000000000000000000000000000179052600090615b2e8682615a15565b9695505050505050565b60408051600160a060020a038416602482015260448082018490528251808303909101815260649091019091526020810180517bffffffffffffffffffffffffffffffffffffffffffffffffffffffff167f095ea7b3000000000000000000000000000000000000000000000000000000001790526000906152638582615a15565b60408051808201909152601581527f55494e5436345f4e554d4245525f544f4f5f4249470000000000000000000000602082015260009067ffffffffffffffff831115615c4c5760405160e560020a62461bcd02815260040180806020018281038252838181518152602001915080519060200190808383600083811015610dab578181015183820152602001610d93565b5090919050565b828054600181600116156101000203166002900490600052602060002090601f016020900481019282601f10615c945782800160ff19823516178555615cc1565b82800160010185558215615cc1579182015b82811115615cc1578235825591602001919060010190615ca6565b50610e47929150615d3b565b828054600181600116156101000203166002900490600052602060002090601f016020900481019282601f10615d0e57805160ff1916838001178555615cc1565b82800160010185558215615cc1579182015b82811115615cc1578251825591602001919060010190615d20565b611b1e91905b80821115610e475760008155600101615d4156000000000100000000000000000000000000000000000000000000000000000000a165627a7a72305820154b4043275aff5a4997c6b2731c55fdee1f396064cdac463741b264cedc69de0029ebb05b386a8d34882b8711d156f463690983dc47815980fb82aeeff1aa43579e"
}