{
  "address": "0x03bA12E20494B9bf1805BE207272De459d034B1b",
  "abi": [
    {
      "constant": false,
      "inputs": [
        {
          "name": "_agreement",
          "type": "address"
        },
        {
          "name": "_disputableApps",
          "type": "address[]"
        },
        {
          "name": "_collateralTokens",
          "type": "address[]"
        },
        {
          "name": "_actionAmountsStable",
          "type": "uint256[]"
        },
        {
          "name": "_challengeAmountsStable",
          "type": "uint256[]"
        },
        {
          "name": "_priceOracle",
          "type": "address"
        },
        {
          "name": "_stableToken",
          "type": "address"
        }
      ],
      "name": "newCollateralRequirementUpdater",
      "outputs": [
        {
          "name": "",
          "type": "address"
        }
      ],
      "payable": false,
      "stateMutability": "nonpayable",
      "type": "function"
    },
    {
      "anonymous": false,
      "inputs": [
        {
          "indexed": false,
          "name": "_newCollateralRequirementUpdater",
          "type": "address"
        }
      ],
      "name": "NewCollateralRequirementUpdater",
      "type": "event"
    }
  ],
  "transactionHash": "0xb77a4c6c273ca60e28722a51e88ca34b4267ab7f7a118d78bed620ed803c4cea",
  "args": [],
  "solcInputHash": "f7407e4e08d726f80a955bcd3a6cc2ae",
  "bytecode": "0x608060405234801561001057600080fd5b506113e3806100206000396000f3006080604052600436106100405763ffffffff7c010000000000000000000000000000000000000000000000000000000060003504166339de624f8114610045575b600080fd5b34801561005157600080fd5b5060408051602060046024803582810135848102808701860190975280865261018396843573ffffffffffffffffffffffffffffffffffffffff1696369660449591949091019291829185019084908082843750506040805187358901803560208181028481018201909552818452989b9a998901989297509082019550935083925085019084908082843750506040805187358901803560208181028481018201909552818452989b9a998901989297509082019550935083925085019084908082843750506040805187358901803560208181028481018201909552818452989b9a9989019892975090820195509350839250850190849080828437509497505073ffffffffffffffffffffffffffffffffffffffff85358116965060209095013590941693506101ac92505050565b6040805173ffffffffffffffffffffffffffffffffffffffff9092168252519081900360200190f35b600080888888888888886101be610401565b73ffffffffffffffffffffffffffffffffffffffff808916825283811660a0830152821660c082015260e0602080830182815289519284019290925288516040840191606085019160808601916101008701918d8201910280838360005b8381101561023457818101518382015260200161021c565b5050505090500185810384528a818151815260200191508051906020019060200280838360005b8381101561027357818101518382015260200161025b565b50505050905001858103835289818151815260200191508051906020019060200280838360005b838110156102b257818101518382015260200161029a565b50505050905001858103825288818151815260200191508051906020019060200280838360005b838110156102f15781810151838201526020016102d9565b505050509050019b505050505050505050505050604051809103906000f080158015610321573d6000803e3d6000fd5b50604080517ff2fde38b000000000000000000000000000000000000000000000000000000008152336004820152905191925073ffffffffffffffffffffffffffffffffffffffff83169163f2fde38b9160248082019260009290919082900301818387803b15801561039357600080fd5b505af11580156103a7573d6000803e3d6000fd5b50506040805173ffffffffffffffffffffffffffffffffffffffff8516815290517f3b9cfe7533d00c736ad7c2ea1d9f8c4d30713494730c1a9e3e6ba367eb55fa2b9350908190036020019150a198975050505050505050565b604051610fa68061041283390190560060806040523480156200001157600080fd5b5060405162000fa638038062000fa683398101604090815281516020830151918301516060840151608085015160a086015160c087015160008054600160a060020a03191633179055938701805196880180519698909791969481019593019391929114801562000083575082518451145b801562000091575083518551145b15156200012557604080517f08c379a000000000000000000000000000000000000000000000000000000000815260206004820152602260248201527f4552524f523a20496e636f6e73697374656e746c792073697a6564206172726160448201527f7973000000000000000000000000000000000000000000000000000000000000606482015290519081900360840190fd5b8551600a10156200019757604080517f08c379a000000000000000000000000000000000000000000000000000000000815260206004820152601f60248201527f4552524f523a20546f6f206d616e792064697370757461626c65206170707300604482015290519081900360640190fd5b60018054600160a060020a031916600160a060020a0389161790558551620001c790600290602089019062000242565b508451620001dd90600390602088019062000242565b508351620001f3906004906020870190620002ac565b50825162000209906005906020860190620002ac565b5060068054600160a060020a03938416600160a060020a03199182161790915560078054929093169116179055506200033f9350505050565b8280548282559060005260206000209081019282156200029a579160200282015b828111156200029a5782518254600160a060020a031916600160a060020a0390911617825560209092019160019091019062000263565b50620002a8929150620002f8565b5090565b828054828255906000526020600020908101928215620002ea579160200282015b82811115620002ea578251825591602001919060010190620002cd565b50620002a892915062000322565b6200031f91905b80821115620002a8578054600160a060020a0319168155600101620002ff565b90565b6200031f91905b80821115620002a8576000815560010162000329565b610c57806200034f6000396000f3006080604052600436106100c45763ffffffff7c01000000000000000000000000000000000000000000000000000000006000350416630d5f9eaa81146100c9578063172c48c7146100f05780632630c12f1461013157806334a2c87314610146578063715018a61461015e57806377072bf0146101755780637db3a9461461018a5780638da5cb5b1461019f578063a54f4e44146101b4578063a9d75b2b146101e0578063c1d92e67146101f5578063c7579c881461020d578063f2fde38b14610225575b600080fd5b3480156100d557600080fd5b506100de610253565b60408051918252519081900360200190f35b3480156100fc57600080fd5b50610108600435610258565b6040805173ffffffffffffffffffffffffffffffffffffffff9092168252519081900360200190f35b34801561013d57600080fd5b5061010861028d565b34801561015257600080fd5b506100de6004356102a9565b34801561016a57600080fd5b506101736102c8565b005b34801561018157600080fd5b5061017361034e565b34801561019657600080fd5b5061010861096f565b3480156101ab57600080fd5b5061010861098b565b3480156101c057600080fd5b5061017360246004803582810192908201359181359182019101356109a7565b3480156101ec57600080fd5b50610108610ab7565b34801561020157600080fd5b50610108600435610ad3565b34801561021957600080fd5b506100de600435610ae1565b34801561023157600080fd5b5061017373ffffffffffffffffffffffffffffffffffffffff60043516610aef565b600a81565b600380548290811061026657fe5b60009182526020909120015473ffffffffffffffffffffffffffffffffffffffff16905081565b60065473ffffffffffffffffffffffffffffffffffffffff1681565b60048054829081106102b757fe5b600091825260209091200154905081565b60005473ffffffffffffffffffffffffffffffffffffffff1633146102ec57600080fd5b6000805460405173ffffffffffffffffffffffffffffffffffffffff909116917ff8df31144d9c2f0f6b59d69b8b98abd5459d07f2742c4df920b25aae33c6482091a26000805473ffffffffffffffffffffffffffffffffffffffff19169055565b600080808080808080805b60025489101561093b57600280548a90811061037157fe5b6000918252602082200154600154604080517fb86472b100000000000000000000000000000000000000000000000000000000815273ffffffffffffffffffffffffffffffffffffffff938416600482018190528251909d50929093169363b86472b19360248082019492918390030190829087803b1580156103f357600080fd5b505af1158015610407573d6000803e3d6000fd5b505050506040513d604081101561041d57600080fd5b5060200151600154604080517f221ce7c300000000000000000000000000000000000000000000000000000000815273ffffffffffffffffffffffffffffffffffffffff8c81166004830152602482018590529151939a5091169163221ce7c3916044808201926080929091908290030181600087803b1580156104a057600080fd5b505af11580156104b4573d6000803e3d6000fd5b505050506040513d60808110156104ca57600080fd5b5080516020820151604083015160609093015160038054939a509198509296509194508a9081106104f757fe5b60009182526020909120015473ffffffffffffffffffffffffffffffffffffffff8781169116146105af57604080517f08c379a000000000000000000000000000000000000000000000000000000000815260206004820152602560248201527f4552524f523a20436f6c6c61746572616c20746f6b656e7320646f206e6f742060448201527f6d61746368000000000000000000000000000000000000000000000000000000606482015290519081900360840190fd5b6006546007546004805473ffffffffffffffffffffffffffffffffffffffff93841693638c86f1e4931691908d9081106105e557fe5b9060005260206000200154896040518463ffffffff167c0100000000000000000000000000000000000000000000000000000000028152600401808473ffffffffffffffffffffffffffffffffffffffff1673ffffffffffffffffffffffffffffffffffffffff1681526020018381526020018273ffffffffffffffffffffffffffffffffffffffff1673ffffffffffffffffffffffffffffffffffffffff1681526020019350505050602060405180830381600087803b1580156106a957600080fd5b505af11580156106bd573d6000803e3d6000fd5b505050506040513d60208110156106d357600080fd5b50516006546007546005805493955073ffffffffffffffffffffffffffffffffffffffff92831693638c86f1e493909216918d90811061070f57fe5b9060005260206000200154896040518463ffffffff167c0100000000000000000000000000000000000000000000000000000000028152600401808473ffffffffffffffffffffffffffffffffffffffff1673ffffffffffffffffffffffffffffffffffffffff1681526020018381526020018273ffffffffffffffffffffffffffffffffffffffff1673ffffffffffffffffffffffffffffffffffffffff1681526020019350505050602060405180830381600087803b1580156107d357600080fd5b505af11580156107e7573d6000803e3d6000fd5b505050506040513d60208110156107fd57600080fd5b5051905083821415806108105750808314155b151561087d57604080517f08c379a000000000000000000000000000000000000000000000000000000000815260206004820152601760248201527f4552524f523a204e6f20757064617465206e6565646564000000000000000000604482015290519081900360640190fd5b600154604080517f079239d400000000000000000000000000000000000000000000000000000000815273ffffffffffffffffffffffffffffffffffffffff8b81166004830152898116602483015267ffffffffffffffff8916604483015260648201869052608482018590529151919092169163079239d49160a480830192600092919082900301818387803b15801561091757600080fd5b505af115801561092b573d6000803e3d6000fd5b50506001909a0199506103599050565b6040517f64ce29450ac1dca47339b74b17eeeaa0cdcd6143c5939f0a88b6cf5a68fa4fb990600090a1505050505050505050565b60015473ffffffffffffffffffffffffffffffffffffffff1681565b60005473ffffffffffffffffffffffffffffffffffffffff1681565b60005473ffffffffffffffffffffffffffffffffffffffff1633146109cb57600080fd5b82811480156109db575060045483145b1515610a6e57604080517f08c379a000000000000000000000000000000000000000000000000000000000815260206004820152602260248201527f4552524f523a20496e636f6e73697374656e746c792073697a6564206172726160448201527f7973000000000000000000000000000000000000000000000000000000000000606482015290519081900360840190fd5b610a7a60048585610bc3565b50610a8760058383610bc3565b506040517faad32b5df501118451f5325ab53c78d234bc6fb8e9e4e2ca0515e6784e09820f90600090a150505050565b60075473ffffffffffffffffffffffffffffffffffffffff1681565b600280548290811061026657fe5b60058054829081106102b757fe5b60005473ffffffffffffffffffffffffffffffffffffffff163314610b1357600080fd5b610b1c81610b1f565b50565b73ffffffffffffffffffffffffffffffffffffffff81161515610b4157600080fd5b6000805460405173ffffffffffffffffffffffffffffffffffffffff808516939216917f8be0079c531659141344cd1fd0a4f28419497f9722a3daafe3b4186f6b6457e091a36000805473ffffffffffffffffffffffffffffffffffffffff191673ffffffffffffffffffffffffffffffffffffffff92909216919091179055565b828054828255906000526020600020908101928215610bfe579160200282015b82811115610bfe578235825591602001919060010190610be3565b50610c0a929150610c0e565b5090565b610c2891905b80821115610c0a5760008155600101610c14565b905600a165627a7a7230582056e47ca7cfb2ec27e4c1964713d88a48ab022a46b5c2dcf7d0f4b50c5fab86020029a165627a7a7230582021d4375a25d27b9803407adf9c98d32048935dee057f62a5d0894dcb6dae7ee10029",
  "devdoc": {
    "methods": {}
  },
  "userdoc": {
    "methods": {}
  }
}